:100000000C943C000C944E000C944E000C944E004A
:100010000C944E000C944E000C944E000C944E0028
:100020000C9474000C944E000C944E000C944E00F2
:100030000C944E000C9450000C944E000C944E0006
:100040000C944E000C944E000C944E000C944E00F8
:100050000C944E000C944E000C944E000C944E00E8
:100060000C944E000C944E000C944E000C944E00D8
:100070000C944E000C944E0011241FBECFEFCDBF48
:10008000DFE3DEBF24E3A0E0B4E301C01D92AB31A7
:10009000B207E1F70E94FB020C9490030C9400005D
:1000A0001F920F920FB60F9211242F933F934F93ED
:1000B0005F936F937F938F939F93AF93BF93EF93D0
:1000C000FF930E94E400FF91EF91BF91AF919F9148
:1000D0008F917F916F915F914F913F912F910F90F1
:1000E0000FBE0F901F9018951F920F920FB60F9290
:1000F00011242F933F934F935F936F937F938F932D
:100100009F93AF93BF93EF93FF93809102349091AD
:100110000334019680930234909303340E94DB00F1
:10012000FF91EF91BF91AF919F918F917F916F91CF
:100130005F914F913F912F910F900FBE0F901F90A5
:1001400018958091003481110BC08091080486FDC0
:1001500005C01092013481E08093003480E008955E
:10016000813061F4809101348530C0F380910804BE
:1001700086FDF4CF1092013482E0EECF823041F45C
:100180008091080486FFEACF1092013483E0E4CF27
:10019000833071F480910134853000F3809108043C
:1001A00086FFDCCF109201341092003481E0089574
:1001B00010920034D3CF809101348F5F809301344B
:1001C00008958091003408951092000480E2809395
:1001D0000404809118348C3050F4883018F5843041
:1001E000E8F08091000480618093000405C08031B4
:1001F000E8F080518430F0F080911834E82FF0E07E
:10020000DF01AC5FBB4C9C919130F1F48431E0F4A0
:10021000EE56FC4F809100040C948A0380910004F8
:100220008860E2CF809100048062DECF809100047C
:100230008460DACF809100048260D6CF886080939A
:10024000000488E280930404809118348F5F843125
:1002500008F080E080931834089580618093000452
:1002600080E3F0CF80628093000480E2EBCF846073
:100270008093000484E2E6CF82608093000482E2EF
:10028000E1CF089520E030E0F901EC5FFB4C808382
:100290002F5F3F4F24313105B9F70895F89480E07E
:1002A0000E9442011092023410920334789408950F
:1002B000F89481E00E9442011092023410920334BB
:1002C000789408959C01F89440910234509103343D
:1002D000880F991F4817590730F010920234109276
:1002E00003347894089580910234909103348217F6
:1002F000930720F081E00E944201F3CF80E0FBCF22
:10030000CF93DF93EC01F89480E00E9442012091AA
:10031000023430910334CE01880F991F2817390712
:1003200040F010920234109203347894DF91CF9110
:10033000089580910234909103348C179D0760F0EA
:1003400080E090E021E0FC01EC5FFB4C2083029612
:1003500084319105C1F7E9CF81E090E021E0FC0113
:10036000EC5FFB4C2083029685319105C1F7DDCF10
:10037000CF93BC01F894209102343091033445E0CE
:10038000880F991F4A95E1F72817390738F010921E
:100390000234109203347894CF910895209102345E
:1003A000309103344BE0469FC001479F900D1124CC
:1003B0002817390700F180910234909103340E948C
:1003C0006203C5EFC60F81E00E94420120E044E1D4
:1003D00050E0822F90E0FC01EC5FFB4C1082211575
:1003E00031F0FA01E81BF90BEC5FFB4C10822F5F38
:1003F000C21778F7D0CF80910234909103340E94D5
:100400006203C62F80E00E94420120E031E044E117
:1004100050E0822F90E0FC01EC5FFB4C3083211513
:1004200031F0FA01E81BF90BEC5FFB4C30832F5FD6
:10043000C21778F7B0CFCF93DF93EC01F89480E048
:100440000E9442012091023430910334CE01880F82
:10045000991F880F991F2817390740F0109202340E
:10046000109203347894DF91CF91089580910234F3
:1004700090910334BE010E9462037727FB01EC5F79
:10048000FB4C81E08083FB01E85FFB4C8083FB0138
:10049000E45FFB4C8083FB01E05FFB4C80836C5E80
:1004A0007B4CFB018083DECFCF93DF93EC01F8948C
:1004B00080E00E94420180910234909103348C17B5
:1004C0009D0748F080911A34109202341092033440
:1004D0008F5F80931A3420911A34822F64E10E9436
:1004E0005603E92FF0E0EC5FFB4C41E0408330E045
:1004F000C9010196C4E1D0E0BE010E947603FC016F
:10050000EC5FFB4C4083C9010296BE010E9476035A
:10051000FC01EC5FFB4C40837894DF91CF91089510
:10052000CF93DF93EC01F89481E00E944201809127
:100530000234909103348C179D0748F08091193450
:1005400010920234109203348F5F809319342091FB
:100550001934822F64E10E945603E92FF0E0EC5F2A
:10056000FB4C108230E0C9010196C4E1D0E0BE012D
:100570000E947603FC01EC5FFB4C1082C9010296DD
:10058000BE010E947603FC01EC5FFB4C1082789464
:10059000DF91CF910895883068F5E82FF0E0EA55B3
:1005A000FC4F0C948A030E944E0180910404807ECB
:1005B000809304040E94E10081111CC00C9441014D
:1005C0000C9458018EEE92E00C9462018CE291E062
:1005D0000C94800186E990E00C94B8018CE291E0E3
:1005E0000C941B0286E990E00C94540286E990E09A
:1005F0000C949002089588ED84BF1092600084BF2F
:1006000081E0809361009EE39093000410920404C3
:1006100098E09093160410928006109200061092B3
:100620000C0610920D0695E09093000A1092010AB4
:100630001092030A80930A0A23EC32EA2093260AD6
:100640003093270A1092200A1092210A8093800A80
:100650001092810A8093850A8DE890E280938C0A3B
:1006600090938D0A10928A0A10928B0A789480E0F7
:100670000E94420100E010E0C1E0809102349091BC
:10068000033480179107C9F38C2F0E94CB0200918D
:100690000234109103340E94A100811571F3CF5FE1
:1006A000C7701092023410920334E7CF992778E094
:1006B000880F991F961708F0961B881F7A95C9F71F
:1006C00080950895AA1BBB1B51E107C0AA1FBB1F41
:1006D000A617B70710F0A61BB70B881F991F5A95CE
:1006E000A9F780959095BC01CD01089597FB072E41
:1006F00016F4009407D077FD09D00E94620307FC2E
:1007000005D03EF4909581959F4F08957095619521
:100710007F4F0895EE0FFF1F0590F491E02D09948F
:10072000F894FFCF2D01320137013C011E01320147
:1007300037013C011E012D0137013C011E012D0135
:1007400032013C011E012D0132013701D302E002CA
:0C075000E202E602EA02EE02F202F60209
:00000001FF
